:100000000C945D000C9485000C9485000C94850084
:100010000C9485000C9485000C9485000C9485004C
:100020000C9485000C9485000C9485000C9485003C
:100030000C9485000C9485000C9485000C9485002C
:100040000C946E050C9485000C943C050C941605DC
:100050000C9485000C9485000C9485000C9485000C
:100060000C9485000C94850000000008000201003B
:100070000003040700000000000000000000000072
:10008000250028002B0000000000240027002A0083
:10009000040404040404040402020202020203032E
:1000A0000303030301020408102040800102040836
:1000B0001020010204081020B80511241FBECFEF44
:1000C000D8E0DEBFCDBF22E0A8E6B1E001C01D92BE
:1000D000AF31B207E1F711E0A0E0B1E0E8E0F3E111
:1000E00002C005900D92A836B107D9F710E0CDE512
:1000F000D0E004C02197FE010E945F07CC35D107F4
:10010000C9F70E94FD050C9482090C94000090E050
:10011000FC01EC55FF4F2491FC01E057FF4F849107
:10012000882399F090E0880F991FFC01EA57FF4F50
:10013000A591B491FC01E458FF4F859194918FB73C
:10014000F894EC91E22BEC938FBF0895CF92DF925D
:10015000EF92FF920F931F93CF93DF936C017A017D
:100160008B01C0E0D0E0CE15DF0589F0D8016D919C
:100170008D01D601ED91FC910190F081E02DC60139
:100180000995892B11F47E0102C02196ECCFC7019D
:10019000DF91CF911F910F91FF90EF90DF90CF9063
:1001A0000895FC01918D828D981761F0828DDF0199
:1001B000A80FB11D5D968C91928D9F5F9F73928F5A
:1001C00090E008958FEF9FEF0895FC01918D828D4F
:1001D000981731F0828DE80FF11D858D90E008951C
:1001E0008FEF9FEF0895FC01918D228D892F90E074
:1001F000805C9F4F821B91098F739927089582E736
:1002000091E00E94F30021E0892B09F420E0822F85
:100210000895FC01848DDF01A80FB11DA35ABF4FC3
:100220002C91848D90E001968F739927848FA689F5
:10023000B7892C93A089B1898C9180648C93938D1C
:10024000848D981306C00288F389E02D80818F7D0C
:1002500080830895EF92FF920F931F93CF93DF93C4
:10026000EC0181E0888F9B8D8C8D981305C0E88907
:10027000F989808185FD24C0F62E0B8D10E00F5F7B
:100280001F4F0F731127E02E8C8DE8120CC00FB694
:1002900007FCFACFE889F989808185FFF5CFCE0187
:1002A0000E940901F1CF8B8DFE01E80FF11DE35A89
:1002B000FF4FF0820B8FEA89FB898081806207C043
:1002C000EE89FF896083E889F98980818064808371
:1002D00081E090E0DF91CF911F910F91FF90EF901F
:1002E0000895CF93DF93EC01888D8823C9F0EA89C4
:1002F000FB89808185FD05C0A889B9898C9186FD1F
:100300000FC00FB607FCF5CF808185FFF2CFA8891B
:10031000B9898C9185FFEDCFCE010E940901E7CF0D
:10032000DF91CF91089580E090E0892B29F00E9421
:10033000FF0081110C940000089590E0FC01E85941
:10034000FF4F3491FC01EC55FF4F2491FC01E05725
:10035000FF4FE491EE2309F43BC0332339F13330EE
:1003600091F038F43130A9F0323001F584B58F7D49
:1003700012C0373091F03830A1F03430B9F48091A8
:1003800080008F7D03C0809180008F7780938000F4
:100390000DC084B58F7784BD09C08091B0008F7780
:1003A00003C08091B0008F7D8093B000F0E0EE0F2D
:1003B000FF1FE458FF4FA591B4918FB7F894EC91CB
:1003C000611103C020952E2301C02E2B2C938FBFCB
:1003D00008953FB7F89480916D0190916E01A091BE
:1003E0006F01B091700126B5A89B05C02F3F19F091
:1003F0000196A11DB11D3FBFBA2FA92F982F8827A5
:10040000820F911DA11DB11DBC01CD0142E0660FFF
:10041000771F881F991F4A95D1F708958F929F9251
:10042000AF92BF92CF92DF92EF92FF920E94E901CA
:100430004B015C0188EEC82E83E0D82EE12CF12C14
:100440000E94E901DC01CB0188199909AA09BB09BD
:10045000883E9340A105B10558F021E0C21AD108A9
:10046000E108F10888EE880E83E0981EA11CB11CFB
:10047000C114D104E104F10419F7FF90EF90DF906B
:10048000CF90BF90AF909F908F900895009769F0A4
:10049000FC0101900020E9F73197AF01481B590B8F
:1004A000BC0182E791E00C94A60080E090E0089502
:1004B000CF93DF930E944602EC0181E291E00E941B
:1004C00046028C0F9D1FDF91CF910895EF92FF920E
:1004D0000F931F93CF93DF93E82EF62EC0E0D0E06A
:1004E000042F10E098010C2E02C0359527950A9430
:1004F000E2F7B901617077278E2D0E949D0161E0BE
:100500008F2D0E949D0160E08F2D0E949D012196FC
:10051000C830D10539F7DF91CF911F910F91FF902E
:10052000EF9008952F923F924F925F926F927F9239
:100530008F929F92AF92BF92CF92DF92EF92FF92F3
:100540000F931F93CF93DF93CDB7DEB7A5970FB669
:10055000F894DEBF0FBECDBF2B013C018A018DB7E1
:100560009EB79DA38CA3452BB1F4C301B20100E05B
:10057000FAE0CF2ED12CE12CF12C6115710581050B
:10058000910541F00F5FA70196010E942C07CA0157
:10059000B901F3CF10E084E291E00E945802180103
:1005A00091E0291A31084801880C991CADB7BEB7F3
:1005B000A819B9090FB6F894BEBF0FBEADBFEDB70D
:1005C000FEB731967F015201D12C411451046104D0
:1005D000710461F0D394C301B2012AE030E040E03D
:1005E00050E00E942C0729013A01EFCF2D2D30E079
:1005F000021713078CF4E0E0F0E0201B310B7AE0E7
:10060000672E712CE217F3073CF4C501B3010E9479
:10061000F6065B013196F6CF95010B2C000C440BCE
:10062000550BD12C6AE0462E512C612C712C2115D2
:1006300031054105510541F0D394CA01B901A30127
:1006400092010E942C07F3CF2D2D30E0409119022A
:10065000FBA2EAA2F701612C712C9AE0492E512CE1
:1006600060167106BCF46216730644F0411103C0B3
:10067000518240820AC01182108207C0C501B201B6
:100680000E94F606918380835B018FEF681A780AD7
:100690003296E6CF809118028C3469F081E291E0C5
:1006A0000E9446021701A12CB12C8AE0482E512C41
:1006B000612C712C5BC0A801421B530B79F38E0C8B
:1006C0009F1C20E030E06AE070E02417350734F723
:1006D000F40180E090E0821593054CF4DF0114975B
:1006E0000D90BC91A02DB293A2930196F4CFD701A7
:1006F0006D937C932F5F3F4FE8CFF10121913191B2
:100700001F016901330FEE08FF08F7FE33C0E091C7
:100710007201F09173010190F081E02D6DE282E7AA
:1007200091E0099522273327A9012C193D094E098B
:100730005F0919A2CE0181964C01CA01B901A3013A
:1007400092010E940A07605DD4016E934D0121154C
:1007500031054105510589F7C4010E9446028FE326
:1007600091E00E944602BFEFAB1ABB0AA016B10689
:1007700024F216C0A701960119A2FE01B1964F01FD
:10078000CA01B901A30192010E940A07605DD40168
:100790006E934D01211531054105510589F7DCCFD7
:1007A00081E291E00E94460260E0809116020E9480
:1007B0009D01E12CF12CE016F106C4F4AAA1BBA125
:1007C000ED91FD91BBA3AAA3EA5FFE4F408180910A
:1007D0001702833409F0409560911502809114024C
:1007E0000E946602BFEFEB1AFB0AE5CF61E0809141
:1007F00016020E949D01ECA1FDA10FB6F894FEBF68
:100800000FBEEDBFA5960FB6F894DEBF0FBECDBFED
:10081000DF91CF911F910F91FF90EF90DF90CF90DC
:10082000BF90AF909F908F907F906F905F904F9010
:100830003F902F9008950E945C09CF93DF93DC01D5
:10084000ED91FC91EB01A881B981309711F01097DF
:10085000C9F4109759F0EB012C813D81232B31F025
:100860008C9190E091958195910914C0309781F019
:10087000DC0114968D919C911597892B49F080810C
:1008800090E008C0BD01CF01DF91CF910C947209B7
:1008900080E090E0DF91CF910895EF92FF920F9367
:1008A0001F93CF93DF93EC01198218821B821A8267
:1008B0001D821C8261157105A9F17B01FB0101906C
:1008C0000020E9F731978F01061B170BB8016F5F06
:1008D0007F4F80E090E00E949208009759F0998342
:1008E00088831B830A832C813D81232B81F4FC01A7
:1008F00010820DC088819981009711F00E94FA073B
:10090000198218821D821C821B821A820BC01D83D1
:100910000C83B701DF91CF911F910F91FF90EF9062
:100920000C947B09DF91CF911F910F91FF90EF9075
:100930000895AF92BF92CF92DF92FF920F931F93D1
:10094000CF93DF9300D000D000D0CDB7DEB76C01DD
:10095000F62EA12CB12CF60184819581A816B9063A
:10096000D0F4F601008111810115110529F41092CE
:10097000710101E711E002C00A0D1B1DF801808121
:10098000082E000C990B0E946109F8018083FFEF8B
:10099000AF1ABF0AE0CF61E471E0CE0101960E9478
:1009A0004D04BE016F5F7F4FC6010E941D048C0184
:1009B00089819A810E94FA07012B49F46F2D6F7D7E
:1009C0006C3411F0623511F5609318021FC067E4B2
:1009D00071E0CE0101960E944D04BE016F5F7F4F12
:1009E000C6010E941D048C0189819A810E94FA0728
:1009F000012B61F46F2D6F7D693521F481E08093C7
:100A0000190204C06E3411F41092190226960FB622
:100A1000F894DEBF0FBECDBFDF91CF911F910F9134
:100A2000FF90DF90CF90BF90AF9008951F920F92EC
:100A30000FB60F9211242F933F934F935F936F93B1
:100A40007F938F939F93AF93BF93EF93FF9382E72F
:100A500091E00E940901FF91EF91BF91AF919F91A9
:100A60008F917F916F915F914F913F912F910F9057
:100A70000FBE0F901F9018951F920F920FB60F92F6
:100A800011242F938F939F93EF93FF93E091820113
:100A9000F09183018081E0918801F091890182FDCC
:100AA00012C0908180918B018F5F8F7320918C0198
:100AB000821751F0E0918B01F0E0EE58FE4F958FD8
:100AC00080938B0101C08081FF91EF919F918F9165
:100AD0002F910F900FBE0F901F9018951F920F929D
:100AE0000FB60F9211242F933F938F939F93AF9341
:100AF000BF938091690190916A01A0916B01B091BF
:100B00006C013091680123E0230F2D3720F401960A
:100B1000A11DB11D05C026E8230F0296A11DB11D20
:100B2000209368018093690190936A01A0936B01FF
:100B3000B0936C0180916D0190916E01A0916F0155
:100B4000B09170010196A11DB11D80936D0190932C
:100B50006E01A0936F01B0937001BF91AF919F910F
:100B60008F913F912F910F900FBE0F901F9018956E
:100B7000E2E7F1E01382128288EE93E0A0E0B0E0B9
:100B800084839583A683B78385E191E091838083F5
:100B900085EC90E09587848784EC90E09787868742
:100BA00080EC90E0918B808B81EC90E0938B828B3A
:100BB00082EC90E0958B848B86EC90E0978B868B13
:100BC000118E128E138E148E84E00E94870083E0B3
:100BD0000E94870082E00E948700EFE0F2E084E05C
:100BE0008483858383E0868382E0878312861386ED
:100BF00083E4808782E581870895CF93DF9300D0D7
:100C000000D000D0CDB7DEB7789484B5826084BDC3
:100C100084B5816084BD85B5826085BD85B5816000
:100C200085BD80916E00816080936E00109281007E
:100C30008091810082608093810080918100816039
:100C400080938100809180008160809380008091FA
:100C5000B10084608093B1008091B0008160809386
:100C6000B00080917A00846080937A0080917A004D
:100C7000826080937A0080917A00816080937A000C
:100C800080917A00806880937A001092C100E09190
:100C90008201F091830182E08083E0917E01F091F6
:100CA0007F011082E0918001F09181018FEC8083BF
:100CB00010928A01E0918601F091870186E080839D
:100CC000E0918401F0918501808180618083E091D1
:100CD0008401F0918501808188608083E0918401A6
:100CE000F0918501808180688083E0918401F0919A
:100CF000850180818F7D80838DE491E00E94580280
:100D000063E571E0CE0101960E944D046CE6CE01D0
:100D100001960E94990489819A810E94FA0789E5C7
:100D200091E00E9458024091130250E06CE070E0A4
:100D300080E090E00E9492020E940E0263E571E062
:100D4000CE0101960E944D0462E7CE0101960E94F9
:100D5000990489819A810E94FA0789E591E00E94AD
:100D600058024091130250E06CE070E080E090E0A7
:100D70000E9492020E940E020E949301C1CF2F9204
:100D80003F924F925F926F927F928F929F92AF921B
:100D9000BF92CF92DF92EF92FF920F931F93CF9368
:100DA000DF93CDB7DEB7CA1BDB0B0FB6F894DEBFFF
:100DB0000FBECDBF09942A88398848885F846E8425
:100DC0007D848C849B84AA84B984C884DF80EE806F
:100DD000FD800C811B81AA81B981CE0FD11D0FB678
:100DE000F894DEBF0FBECDBFED01089597FB072E2F
:100DF00016F4009407D077FD09D00E944B0707FC3A
:100E000005D03EF4909581959F4F0895709561951A
:100E10007F4F0895A1E21A2EAA1BBB1BFD010DC036
:100E2000AA1FBB1FEE1FFF1FA217B307E407F5079A
:100E300020F0A21BB30BE40BF50B661F771F881F76
:100E4000991F1A9469F760957095809590959B010C
:100E5000AC01BD01CF010895052E97FB1EF400944F
:100E60000E94430757FD07D00E940A0707FC03D0E2
:100E70004EF40C94430750954095309521953F4F83
:100E80004F4F5F4F089590958095709561957F4F76
:100E90008F4F9F4F0895AA1BBB1B51E107C0AA1F8C
:100EA000BB1FA617B70710F0A61BB70B881F991F0B
:100EB0005A95A9F780959095BC01CD010895EE0F44
:100EC000FF1F0590F491E02D0994CF93DF938230BA
:100ED000910510F482E090E0E0911D02F0911E0275
:100EE00020E030E0C0E0D0E0309711F14081518146
:100EF00048175907C0F04817590761F48281938158
:100F0000209719F09B838A832BC090931E028093B5
:100F10001D0226C02115310519F04217530718F498
:100F20009A01BE01DF01EF010280F381E02DDCCFE9
:100F30002115310509F1281B390B2430310590F4B6
:100F400012968D919C9113976115710521F0FB010B
:100F50009383828304C090931E0280931D02FD013F
:100F6000329644C0FD01E20FF31F8193919322500A
:100F700031092D933C933AC020911B0230911C0201
:100F8000232B41F4209102013091030130931C0284
:100F900020931B02209100013091010121153105A0
:100FA00041F42DB73EB74091040150910501241B37
:100FB000350BE0911B02F0911C02E217F307A0F43D
:100FC0002E1B3F0B2817390778F0AC014E5F5F4F9F
:100FD0002417350748F04E0F5F1F50931C024093B3
:100FE0001B028193919302C0E0E0F0E0CF01DF911A
:100FF000CF9108950F931F93CF93DF93009709F438
:101000008CC0FC0132971382128200911D02109154
:101010001E020115110581F420813181820F931F79
:1010200020911B0230911C022817390779F5F093A3
:101030001C02E0931B0271C0D80140E050E0AE17E3
:10104000BF0750F412962D913C911397AD012115D5
:10105000310509F1D901F3CF9D01DA0133832283F0
:1010600060817181860F971F8217930769F4EC01E5
:1010700028813981260F371F2E5F3F4F3183208310
:101080008A819B8193838283452B29F4F0931E02EE
:10109000E0931D0242C01396FC93EE931297ED016C
:1010A000499159919E01240F351FE217F30771F4FE
:1010B00080819181840F951F029611969C938E9347
:1010C0008281938113969C938E931297E0E0F0E0D7
:1010D000D80112968D919C911397009719F0F80101
:1010E0008C01F6CF8D919C9198012E5F3F4F820F1E
:1010F000931F20911B0230911C022817390769F4B5
:10110000309729F410921E0210921D0202C0138221
:10111000128210931C0200931B02DF91CF911F914A
:101120000F910895A0E0B0E0E8E9F8E00C94C30660
:10113000EC01009721F4CB010E946507B8C0FC01C7
:10114000E60FF71F9C0122503109E217F30708F45C
:10115000ACC0D9010D911C91119706171707B0F07B
:101160000530110508F49FC0C8010497861797073A
:1011700008F499C002501109061B170B0193119333
:101180006D937C93CF010E94FA078DC05B01A01A7A
:10119000B10A4C01800E911EA0911D02B0911E0259
:1011A00040E050E0E12CF12C109709F44AC0A8155A
:1011B000B905D1F56D907C901197630182E0C80E5E
:1011C000D11CCA14DB0480F1A3014A195B096A012E
:1011D00082E0C80ED11C1296BC9012971396AC9167
:1011E000B5E0CB16D10440F0B282A3835183408393
:1011F000D9016D937C930AC00E5F1F4FC301800F0E
:10120000911FF90191838083EB2DFA2FE114F104F2
:1012100031F0D7011396FC93EE93129744C0F093EC
:101220001E02E0931D023FC08D919C9111974817BB
:10123000590708F4AC017D0112960D90BC91A02DC8
:10124000B3CF80911B0290911C0288159905E1F49F
:1012500046175707C8F4809100019091010100974B
:1012600041F48DB79EB74091040150910501841B54
:10127000950BE817F907C8F4F0931C02E0931B02E2
:10128000F901718360830FC0CB010E9465077C0167
:10129000009759F0A801BE010E946909CE010E9481
:1012A000FA07C70104C0CE0102C080E090E0CDB7CC
:1012B000DEB7EEE00C94DF0681E090E0F8940C9449
:1012C00082099111089581568A5108F480528558F7
:1012D0000895FB01DC0102C001900D924150504085
:1012E000D8F70895FB01DC018D9101908019011060
:1012F000D9F3990B0895FB01DC0101900D920020B8
:08130000E1F70895F894FFCF16
:1013080000001F028000FC60DAF266B6BEE0FEE66E
:1013180000000000002A01A600F300D100E50071DA
:10132800010D0A007072696E74286C6F6E67206E0A
:10133800756D2C696E74206469676974732900205F
:1013480000414C49474E005A45524F53007374614F
:10135800727400616C69676E007072696E742869D6
:081368006E74206E756D290002
:00000001FF
